:020000040800F2
:10000000780400201119000841180008431800085E
:1000100000000000000000000000000000000000E0
:100020000000000000000000000000004718000869
:100030000000000000000000491800084B180008EC
:10004000630B000800000000670D0008EF190008AE
:10005000FB1900081D1A00081F1A0008211A0008C1
:1000600000000000231A0008251A0008271A0008BB
:10007000291A00082B1A00082D1A00080000000099
:100080009918000800000000000000002F1A000866
:10009000311A0008331A0008351A0008371A000808
:1000A000391A00083B1A00083D1A00084D180008CC
:1000B0003F1A000800B50178012903D101206249E7
:1000C00008701EE00178022903D100205E49087003
:1000D00017E00178032914D101215C4A117041789D
:1000E0000902827811435A4A1180C17809020279C3
:1000F0001143584A118041790902807901438748A8
:10010000018000BD80B5022000F000FA0028FAD07E
:10011000022000F00EFA8248008882490880804858
:100120004088814908807E488088804908807C48D2
:10013000C0887F4908807A4800897E49088001BDCF
:1001400080B500207B4909880A2901DA322010E0B5
:10015000784800887849884202DBC820800008E09F
:10016000744800880A3875494843754900F024FAF4
:10017000323080B200F0EFFA01BD38B5694800882E
:1001800080B2000A6F490870664800886D4948705F
:100190006548008880B2000A6A4988706248008811
:1001A0006849C8706148008880B2000A65490871D2
:1001B0005E480088634948715D48008880B2000A43
:1001C000604988715A4800885E49C87108225D49B3
:1001D0005D4D280000F038FB5B4C00205B49087047
:1001E0005A4800780A2812DA584800780100491C59
:1001F000564A1170C0B2215C89B2554800F0CEFB5E
:100200008021534800F0FCFB0028E9D1F8E731BD1C
:1002100010B50A2100224F4C200000F04DFC0020B8
:100220004D49087010BD80B54C4800F06FFC4C493A
:1002300008804C4800F06AFC4B4908804B4800F0AD
:1002400065FC4B49088001BD75000020740000204A
:10025000600000206200002010B500F083FC00F078
:100260008EFA00F003FA00F0D5FC3C4800F04EFC9A
:100270003B4908803B4800F049FC3B4908803B482B
:1002800000F044FC3A4908803A480078012806D139
:10029000002038490870FFF735FFFFF751FF364857
:1002A0000078012807D1002033490870FFF7B0FF1C
:1002B00001203249087031480078012804D100201B
:1002C0002E490870FFF759FF2D48007801280BD1FF
:1002D00000202B4908700A221E492A4C200000F0F9
:1002E000B3FA2848FFF7E6FE274800780128CBD16B
:1002F00000202549087025480188184800F009FCAD
:1003000023480188174800F004FC04480188174876
:1003100000F0FFFBFFF787FFB6E700006400002056
:100320002C0000205000002052000020540000202B
:100330005600002058000020010F0000EE020000CF
:10034000F60E00001C000020100000206E000020AF
:1003500000380140380000206F0000200030000805
:100360005A000020003400085C000020003800081B
:100370005E0000207000002071000020720000204C
:100380007300002044000020740000206000002062
:100390006200002000B501686A4A0A40026000213C
:1003A000016000214160002181600021C160664937
:1003B000884206D1654800680F2101436348016007
:1003C00074E06349884206D160480068F021014327
:1003D0005E4801606AE05F49884207D15B48006877
:1003E000F02109010143594801605FE05A49884200
:1003F00007D156480068F0210902014353480160C3
:1004000054E05649884207D150480068F02109035A
:1004100001434E48016049E05149884207D14B48A9
:100420000068F02109040143484801603EE04D495D
:10043000884207D145480068F02109050143434837
:10044000016033E04849884206D1484800680F21DE
:1004500001434648016029E04549884206D14348A6
:100460000068F0210143414801601FE04149884292
:1004700007D13E480068F021090101433B48016073
:1004800014E03D49884207D138480068F02109024C
:1004900001433648016009E03849884206D13348B3
:1004A0000068F021090301433048016000BD30B409
:1004B0000023026813001A00314B13401A008B68A6
:1004C0000C6A1C430B6923434C691C438B6923430F
:1004D000CC691C434D6A25438B6A2B43134303604D
:1004E000CA6842600A6882604968C16030BC70476F
:1004F00000B5C9B2002904D0016801220A43026094
:1005000003E001680F4A0A40026000BD00B5002107
:100510000022C30002D51C490A6801E019490A6893
:100520001040002801D0012100E000210800C0B2E5
:1005300000BD00B5C10002D50C49086001E00349C7
:10054000086000BDFEFF00000800024004000240F9
:100550001C000240300002404400024058000240AB
:100560006C00024080000240080402400404024083
:100570001C0402403004024044040240580402407B
:100580000F80FFFF0000024000040240F4460028F4
:1005900004D4494200F013F8404260474042002929
:1005A00005D45FD000F00BF8404249426047494211
:1005B00000F005F84942604703460B43E6D40022A9
:1005C000030A8B420BD203098B4219D243088B4298
:1005D0002ED2411A00D20146524110467047FF22E6
:1005E00009023FD012068B4205D3121209028B4238
:1005F00001D31212090203098B4219D300E0090A40
:10060000C3098B4201D3CB01C01A524183098B42EB
:1006100001D38B01C01A524143098B4201D34B01D4
:10062000C01A524103098B4201D30B01C01A524137
:10063000C3088B4201D3CB00C01A524183088B42BE
:1006400001D38B00C01A524143088B4201D34B00A7
:10065000C01A5241884200D3401A5241CFD20146BB
:100660001046704708B500F07DFB08BD00B58BB0A3
:1006700001218020800200F07DFC042000900220F7
:1006800069460871032069464871002069468871EF
:1006900000206946C87169469020C00500F0C2FC80
:1006A000022202219020C00500F00DFD5C48006888
:1006B0005C49FFF784FF401E5B4908805A48008868
:1006C000401E5A494843FA218900FFF778FF5849EC
:1006D00008800121012000F06DFC0020694688831C
:1006E000002007A94880504800880890002007A9EA
:1006F0000881002007A9887207A98020C00500F0A2
:1007000017FD702069460881012002A94880042055
:1007100002A98880464800880490022002A98881A6
:10072000002002A9C8818020400002A90882002080
:1007300002A9488202A98020C00500F0ABFD01217A
:100740008020C00500F02AFD01218020C00500F0B6
:100750003BFD0BB000BD80B580B233490988491E0E
:1007600041430800FA218900FFF729FF304908803A
:100770002F4801888020C00500F0E4FD01BD00B5D0
:1007800089B00121022000F015FC10206946087094
:10079000002069464870012069468870684600F06C
:1007A00015FE1F4800682349FFF709FF401E224934
:1007B000088022480290002069468880002001A914
:1007C0000881002001A94880002001A9887201A9A0
:1007D0001B4800F0ADFC012217480188184800F0C2
:1007E000DAFC002069460882012004A948801548E7
:1007F0000690002004A9888104A9114800F0F7FCA4
:1008000000210F4800F0A2FD012202210C4800F057
:10081000B7FD01210A4800F0C1FC09B000BD00008D
:1008200028000020781E00006A000020520300000B
:100830006C000020808D5B0068000020FFFF00003E
:100840000004004030750000124207D08B0706D02C
:100850000B78491C0370401C521EF7D87047830761
:1008600006D00B78491C0370401C521EF9D170470A
:1008700070B4103A03D378C9103A78C0FBD253074A
:1008800001D318C918C001D508C908C0D20704D3BC
:100890000B880380891C801C002A01D50B7803700B
:1008A00070BC7047F0B58BB005000F000024002627
:1008B0000021286801229043286068680100080030
:1008C0003A4901400800B968014369602968080095
:1008D000374901400B007868FA68024339691143CF
:1008E00019432960A9680800324901400800796964
:1008F0000143A960684600F037FA2548854201D1D6
:10090000069E0AE02348854201D1079E05E0224861
:10091000854201D1089E00E0029E286800040CD5A3
:10092000022070433968FFF74AFE04000220464364
:1009300030003968FFF743FE08E030003968FFF700
:100940003EFE040030003968FFF739FE3868400881
:10095000814200D3641C2868000407D520004008A9
:100960004107490F144820400C000443AC810BB0F0
:10097000F0BD00B5C9B2002904D0016801220A43C4
:10098000026003E0016801229143016000BD0000A4
:10099000003801400044004000480040C905C90D2E
:1009A00001857047808CC005C00D7047FFCFFFFFE9
:1009B000F3E9FFFFFFFCFFFFF0FF000070B500232D
:1009C0000024002500260600080080B2000A80B23C
:1009D0000300C8B204000120A0400500022B01D191
:1009E000361D02E0032B00D10836D2B2002A03D014
:1009F00030680543356002E03068A843306070BD60
:100A000000B502000020D2691140002901D0012068
:100A100000E00020C0B200BDF0B5020000240025B7
:100A2000002600200B009BB21B0A9BB21E00CBB21B
:100A30001D0001272B003D009D40012E03D1280001
:100A40001568054008E0022E03D1280055680540CE
:100A500002E02800956805400C00240C01212000CC
:100A60000C0084402000D4690440002D03D0002CE9
:100A700001D0012000E00020C0B2F0BD0022002320
:100A8000090C0A00012191400B000362704730B449
:100A9000012100220368001D002B0BD00468001DFB
:100AA0000C4202D04D466D1E64192260241D1B1F8E
:100AB000F0D0FAE730BC70471206130A1A43130C41
:100AC0001A4300BF094205D0830705D00270401CBD
:100AD000491EF9D170470000130030B4140015000E
:100AE000103902D310393CC0FCD2490700D30CC0E6
:100AF00000D504C0890002D30280801C002900D5E3
:100B0000027030BC704700000022E5E7006880B248
:100B1000704738B505000C0001206946087000F0E8
:100B20008FFC342000F0F2FC280000F09CFC04282C
:100B300005D00020694608706846007810E0210062
:100B400089B2280000F0B6FC042805D000206946D0
:100B500008706846007803E000F07EFC6846007884
:100B600032BDFEE700B589B001218020800200F08F
:100B700001FA01218020C00100F00CFA01220921B4
:100B80009020C00500F09FFA01220A219020C005A4
:100B900000F099FAC020C0000190022001A908715C
:100BA000032001A94871002001A98871002001A932
:100BB000C87101A99020C00500F034FAE12040027C
:100BC0000390002004900020059000200690002053
:100BD00008900C20079003A90C48FFF763FE012240
:100BE0000B490A48FFF7EAFE01210848FFF7C1FE5A
:100BF0001B2069460870012069464870012069463B
:100C00008870684600F0E2FB09B000BD0038014082
:100C10000501050000B593B04D4800F0ABFC012183
:100C20008020800200F0A6F901218020C00200F09F
:100C3000A1F901218020800000F0ACF9F0200090A3
:100C400003206946087100206946C87169469020F2
:100C5000C00500F0E7F90120009069463D4800F02A
:100C6000E1F90DA800F0ADFC00200D9001200DA9C8
:100C7000087100200F9000201190002012900DA903
:100C8000334800F086FC05221021314800F0C7FCF3
:100C9000052220212E4800F0C2FC052240212C48CC
:100CA00000F0BDFC05228021294800F0B8FC052297
:100CB00080214900264800F0B2FC0522802149022B
:100CC000234800F0ACFC012000F096FC204800F026
:100CD000B2FC02211E4800F0DDFC01211C4800F09E
:100CE000CBFC01211A4800F079FC0121184800F0E2
:100CF000D9FC0028F9D0164800F0B9FC01210120E8
:100D000000F038F91448FFF745FB144802901448E6
:100D1000039000200490062005900020069080207B
:100D200007908020400008908020C000099020207B
:100D30000A90802080010B9000200C9002A90648A8
:100D4000FFF7B5FB01210448FFF7D2FB13B000BD4C
:100D500000240140000400480800024040240140F3
:100D60002C0000207047FEE7F8B5040000210025A4
:100D700000220020009000230020964E36680C27A9
:100D800037403900002906D0042907D0082908D0A7
:100D90000C2925D027E09049216026E08E4921606A
:100DA00023E08C480068F025AD03054089480068C1
:100DB000C02252020240AD0CAD1C002A03D18F4864
:100DC000454328000AE08E4800680007000F401CD9
:100DD000009081480099FFF7F2FB6843206004E02F
:100DE0008949216001E07C4921607A490A68F02143
:100DF00011400909834A535C2168D94061607549F3
:100E00000A68E021C9001140090A7E4A535C616802
:100E1000D940A16056490968C90502D47B49E160FF
:100E20000AE06C490968490403D4A1684908E160F3
:100E300002E0A1688908E1604D490968490602D4C9
:100E40007349216102E08021090221614849096852
:100E5000C90602D46049616101E0216861614449C9
:100E600009688907890F002902D1A168A1611AE0E8
:100E70003F4909688907890F012902D12168A161C9
:100E800011E03B4909688907890F022903D18021B4
:100E90000902A16107E0364909688907890F03291A
:100EA00001D14D49A16132490968C02292020A402C
:100EB000002A02D1A168E16123E02D490968C0221E
:100EC00092020A40802149028A4202D12168E161EE
:100ED00017E027490968C02292020A40802189024E
:100EE0008A4203D180210902E1610AE020490968B0
:100EF000C02292020A40C02189028A4201D13649A9
:100F0000E1611B490968C02212030A40002A02D18C
:100F1000A168216223E016490968C02212030A4031
:100F20008021C9028A4202D12168216217E010495A
:100F30000968C02212030A40802109038A4203D1B2
:100F40008021090221620AE009490968C0221203CE
:100F50000A40C02109038A4201D11F492162044984
:100F60000968090602D42848606200E06062F1BDA9
:100F70003010024000B5C9B2002905D025490968E2
:100F800008432449086004E0224909688143214854
:100F9000016000BD00B5C9B2002905D01E4909682D
:100FA00008431D49086004E01B49096881431A4849
:100FB000016000BD00B5C9B2002905D01749096814
:100FC00008431649086004E014490968814313483E
:100FD000016000BD0410024000127A0000B5C9B2E1
:100FE000002905D00E49096808430D49086004E04E
:100FF0000B49096881430A48016000BD00093D00B2
:101000002C10024000000020006CDC02809FD50004
:101010001280000014100240181002401C10024000
:101020000C10024070B500220023002400252A0085
:1010300046E0012393400C681C409C423FD10B7951
:10104000012B02D00B79022B19D1836803241500E0
:1010500002267543AC40A343836083684C79150036
:1010600002267543AC401C4384608388012494406D
:10107000A343838083888C7994401C4384800368D5
:101080000324150002267543AC40A34303600368A4
:101090000C79150002267543AC401C430460C368FC
:1010A0000324150002267543AC40A343C360C36804
:1010B000CC79150002267543AC401C43C460521C19
:1010C000102AB6D370BDF0B4140000220023E4B29D
:1010D0000D006D076D0F04267543AC40220089B2E8
:1010E0000C00E41004256C43051989B20C00E410CF
:1010F000042674430419266A0F27BC460C006407B3
:10110000640F04277C436746A740BE432E6289B222
:101110000C00E41004256C430419246A22431300D4
:1011200089B2C9100422514340180362F0BC7047D1
:1011300000B5002203881A001F4B984206D0802376
:10114000DB05984202D01D4B984205D113004E4A50
:101150001A4013004A881A43194B984205D01300CD
:101160004A4A1A4013000A891A4302804A68C26236
:101170000A880285104A904208D0124A904205D04F
:10118000404A904202D0424A904201D1897A018677
:101190000121818200BD01858282704700B5C9B2FC
:1011A000002904D0018801220A43028003E001885B
:1011B0005F4A0A40028000BD002C0140000400404C
:1011C000001000400040014000B5C9B2002907D01E
:1011D0004421415A802212020A434430028005E031
:1011E0004421415A4904490C4430018000BD70B586
:1011F000002200230024058C4D4E2E400684058CD1
:101200002B0085882C00058B2A0015001E4A2A40D9
:101210001500484A2A4015000A882A431D00414B00
:101220002B401D008B892B431D004B882B43424DC7
:10123000A84208D0414DA84205D0124DA84202D084
:10124000134DA84217D11D00384B2B401D00CB89F0
:101250002B431D00344B2B401D008B882B43250056
:10126000394C2C4025003E4C2C4025000C8A2C4348
:1012700025004C8A2C43848002838968416303845F
:1012800070BD0000004401408FFF0000FFFC000023
:101290000048014070B5002200230024058C2A4E2E
:1012A0002E400684058C2B0085882C00858B2A0017
:1012B00015002E4A2A4015001E4A2A4015000A88A9
:1012C0002A431D00264B2B401D008B891B022B43FC
:1012D0001D004B881B022B43174DA8421BD11D003C
:1012E000214B2B401D00CB891B022B431D001D4BA6
:1012F0002B401D008B881B022B4325001C4C2C40CF
:1013000025001C4C2C4025000C8A24012C43250070
:101310004C8A24012C43848082838968C1630384BE
:1013200070BD0000FDFF0000FBFF0000F7FF0000A4
:10133000FEFF0000FCFF0000002C014000400140C7
:1013400041637047C1637047FFFE00000022038BBA
:101350001A001300084A1A4011430A00028370471A
:10136000FFFD0000FFFB0000FFF700008FFF000003
:10137000FFEF0000FFDF0000F7FF0000406B704749
:1013800000B5D2B2002A03D082891143818102E0E4
:1013900082898A43828100BD30B50200002000238B
:1013A0000024158A0D402B00928911400C009BB23D
:1013B000002B04D0A4B2002C01D0012000E00020BA
:1013C000C0B230BD89B2CA430282704710B5002155
:1013D0008278002A26D017490278921004235A43B3
:1013E0008958FF2203789B079B0F082463439A4088
:1013F00091430C0041788901C9B202789207920F9B
:1014000008235A43914021430A4A03789B1004243D
:101410006343D15001210078C006C00E81400648C8
:10142000016006E001210078C006C00E814003483B
:10143000016010BD00E400E000E100E080E100E0B8
:1014400000B52D480068000605D52C482D490860D8
:101450002B482C49086000BD2748006880210143C3
:1014600025480160704738B504000425B02000030A
:1014700000F06AF80500EDB2042D18D11E4800688E
:10148000022101431C4801601F4804601A4800689B
:101490004021014318480160B020000300F054F8D7
:1014A0000500154800680221884313490860280098
:1014B000C0B232BD70B505000C000426B020000398
:1014C00000F042F80600F6B2042E11D10A48006876
:1014D00001210143084801602C80B020000300F086
:1014E00033F8060004480068012188430249086077
:1014F0003000C0B270BD00001020024023016745DB
:10150000AB89EFCD04200240142002400D49086051
:101510007047000000B504200A490968C90701D5D1
:1015200001200CE007480068C00601D5022006E053
:1015300004480068400701D5032000E00420C0B241
:1015400000BD00000C20024038B504000425FFF760
:10155000E1FF050003E0FFF7DDFF0500641EEDB2CB
:10156000012D01D1002CF6D1002C00D10525280039
:10157000C0B232BD80B55549884209D101218020D1
:101580008000FFF72BFD002180208000FFF726FD63
:1015900001BD30B40023C26813001A004C4B134045
:1015A0001A000B680C7964031C438B682343CC68D6
:1015B0001C430D6925434B692B431343C36030BC67
:1015C000704700210160002101710021816000212C
:1015D000C1600021016100214161704700B5C9B2BD
:1015E000002904D0816801220A43826003E08168F7
:1015F00002220A43826000BD00B5C0B2002807D0B5
:10160000354800688021090401433348016005E042
:10161000314800682F4901402F48016000BD10B4D7
:101620000023846A2143816207218B431A431300FC
:10163000436110BC704730B5010000200022002338
:101640008C6880252D0625438D608B6880200006E0
:101650000340521CF0200002824201D0002BF4D142
:101660008868002801D4086C00E0002030BD816843
:1016700004220A438260704700B5C9B2002904D031
:10168000C16801220A43C26003E0C168012291439C
:10169000C16000BDC26802239A43C260C2681143A0
:1016A000C160704710B5020000200023CC0103D5B3
:1016B00090680A4B034000E013681940002901D0EC
:1016C000012000E00020C0B210BD00000024014055
:1016D00003D2FFFFFFFF7FFF08270140FFFFFFFE50
:1016E00080B54A48006801210143484801604848E4
:1016F000006848490140464801604448006846493E
:1017000001404248016041480068444901403F4867
:1017100001603F480068424901403D48016041483E
:1017200000680F2188433F4908603F4800683F49EF
:1017300001403D4801603E480068012188433C4922
:10174000086000203B49086000F001F801BDC0B509
:1017500000200190002000902C4800688021490260
:1017600001432A4801602948006880218902084015
:1017700000900198401C01900098002804D1019825
:10178000A021C9018842EED120480068800302D51B
:101790000120009001E0002000900098012834D141
:1017A0001120254908601A4800681949086018483E
:1017B000006817490860164800682049014014482D
:1017C0000160134800688821490301431048016003
:1017D0000E4800688021490401430C4801600B4811
:1017E00000688001FBD50A48006803218843084946
:1017F0000860074800680221014305480160044869
:1018000000680C2101400829F9D103BD00100240F5
:10181000041002400CB8FF08FFFFF6FEFFFFFBFFBD
:10182000FFFFC0FF2C10024030100240ACFEFFFF53
:10183000341002400810024000200240FF7FC0FF29
:10184000704700B5FEE770477047704710B52649EE
:101850002648FFF7E1F8002819D025480478200031
:10186000401C234908702148FFF79CF82149E4B245
:1018700008551D491D48FFF701F91D4800780A2841
:1018800005D101201C49087000201949087016492B
:101890001648FFF7F3F810BD80B502211748FFF78F
:1018A0007BFD00281ED002211448FFF78BFD01208C
:1018B0001349087013480088401C124908801148D9
:1018C0000088C82805DB00200E49088001200E4949
:1018D00008700A48FFF752FD80B20C4941180748CA
:1018E000FFF72EFD01BD0000050105000038014095
:1018F0006F0000203800002073000020000400402A
:10190000700000206600002071000020307500008B
:10191000094880F3088804200168090E1F229142BB
:1019200005D10648012101600548002101600548F4
:101930008047054800470000780400201810024046
:1019400000000140E1160008111A000830B401211E
:101950000268001D002A0FD00368C31844680830CD
:101960000C4202D04D466D1E64191D6825601B1D7A
:10197000241D121FECD0F8E730BC704710B50749A2
:1019800079441831064C7C44163404E0081D0A687A
:10199000891888470100A142F8D110BD0800000055
:1019A00028000000EBF0FFFF4C0000002C0000209E
:1019B0000000000099FFFFFF2C00000084000000E1
:1019C000000000200000000000F00BF8002801D00B
:1019D000FFF7D4FF0020C046C046FEF73DFC00F0F4
:1019E00002F80120704780B500F002F801BDFEE763
:1019F0000746384600F002F8FBE7FEE780B5C04630
:101A0000C046024A11001820ABBEFBE726000200C8
:101A1000C046C046C046C046FFF7D6FFFEE7FEE719
:101A2000FEE7FEE7FEE7FEE7FEE7FEE7FEE7FEE78E
:101A3000FEE7FEE7FEE7FEE7FEE7FEE7FEE7FEE77E
:101A40000000000001020304010203040607080964
:101A5000554152540000000000000000554152540E
:0C1A60000000000000000000006CDC0230
:0400000508001A11C4
:00000001FF
