:020000040800F2
:100000002804002011100008B50F0008B70F0008E1
:1000100000000000000000000000000000000000E0
:10002000000000000000000000000000BB0F0008FE
:100030000000000000000000BD0F0008BF0F000816
:1000400027040008000000001F0D0008EF10000842
:10005000FB1000081D1100081F11000821110008E5
:1000600000000000231100082511000827110008D6
:10007000291100082B1100082D11000800000000B4
:100080002F110008000000000000000031110008DE
:100090003311000835110008371100083911000824
:1000A0003B1100083D1100083F110008C10F000876
:1000B00041110008F8B504000021002500220020AD
:1000C0000090002300208E4E36680C273740390000
:1000D000002906D0042907D0082908D00C2925D0EA
:1000E00027E08849216026E08649216023E0844892
:1000F0000068F025AD03054081480068C022520227
:100100000240AD0CAD1C002A03D1874845432800AE
:100110000AE0864800680007000F401C00907948FC
:10012000009900F013F96843206004E081492160E0
:1001300001E07449216072490A68F02111400909FF
:100140007B4A535C2168D94061606D490A68E021AF
:10015000C9001140090A764A535C6168D940A16020
:1001600056490968C90502D47349E1600AE0644947
:100170000968490403D4A1684908E16002E0A16864
:100180008908E1604D490968490602D46B4921613B
:1001900002E080210902216148490968C90602D4A8
:1001A0005849616101E02168616144490968890732
:1001B000890F002902D1A168A1611AE03F490968AD
:1001C0008907890F012902D12168A16111E03B490A
:1001D00009688907890F022903D180210902A161D9
:1001E00007E0364909688907890F032901D1454984
:1001F000A16132490968C02292020A40002A02D154
:10020000A168E16123E02D490968C02292020A40F9
:10021000802149028A4202D12168E16117E0274921
:100220000968C02292020A40802189028A4203D1D1
:1002300080210902E1610AE020490968C022920296
:100240000A40C02189028A4201D12E49E1611B493D
:100250000968C02212030A40002A02D1A168216263
:1002600023E016490968C02212030A408021C9020E
:100270008A4202D12168216217E010490968C02230
:1002800012030A40802109038A4203D18021090216
:1002900021620AE009490968C02212030A40C0210C
:1002A00009038A4201D117492162044909680906F4
:1002B00002D42048606200E06062F1BD301002406C
:1002C00000B5C9B2002905D01D49096808431C4979
:1002D000086004E01A49096881431948016000BDBB
:1002E00000B5C9B2002905D0164909680843154967
:1002F000086004E01349096881431248016000BDA9
:100300000410024000127A0000B5C9B2002905D0DD
:100310000D49096808430C49086004E00A49096866
:1003200081430948016000BD00093D002C100240D6
:1003300000000020006CDC02809FD50012800000CD
:1003400014100240181002400C1002400022030A50
:100350008B420BD203098B4219D243088B422ED217
:10036000411A00D20146524110467047FF2209024D
:100370003FD012068B4205D3121209028B4201D3E1
:100380001212090203098B4219D300E0090AC309BA
:100390008B4201D3CB01C01A524183098B4201D356
:1003A0008B01C01A524143098B4201D34B01C01A41
:1003B000524103098B4201D30B01C01A5241C308B9
:1003C0008B4201D3CB00C01A524183088B4201D328
:1003D0008B00C01A524143088B4201D34B00C01A14
:1003E0005241884200D3401A5241CFD201461046B2
:1003F000704708B500F016F808BD38B40121002296
:100400000368001D002B0BD00468001D0C4202D0B5
:100410004D466D1E64192260241D1B1FF0D0FAE7A3
:1004200032BC70477047FEE7F0B58BB006000F0096
:10043000002400250021306801229043306070685C
:10044000010008003A4901400800B96801437160A1
:1004500031680800374901400B007868FA680243A8
:100460003969114319433160B168080032490140CC
:10047000080079690143B1606846FFF71BFE254813
:10048000864201D1069D0AE02348864201D1079D9C
:1004900005E02248864201D1089D00E0029D3068B7
:1004A00000040CD5022068433968FFF74FFF0400B1
:1004B0000220454328003968FFF748FF08E028007C
:1004C0003968FFF743FF040028003968FFF73EFF53
:1004D00038684008814200D3641C3068000407D5A6
:1004E000200040084107490F144820400C000443F5
:1004F000B4810BB0F0BD00B5C9B2002904D00168C9
:1005000001220A43026003E0016801229143016075
:1005100000BD000000380140004400400048004099
:10052000C905C90D01857047808CC005C00D704795
:10053000FFCFFFFFF3E9FFFFFFFCFFFFF0FF00002D
:1005400070B500230024002500260600080080B2B4
:10055000000A80B20300C8B204000120A0400500D8
:10056000022B01D1361D02E0032B00D10836D2B296
:10057000002A03D030680543356002E03068A843A4
:10058000306070BD00B502000020D2691140002922
:1005900001D0012000E00020C0B200BDF0B5020093
:1005A00000240025002600200B009BB21B0A9BB2F2
:1005B0001E00CBB21D0001272B003D009D40012EE7
:1005C00003D128001568054008E0022E03D1280059
:1005D0005568054002E02800956805400C00240C91
:1005E000012120000C0084402000D4690440002D2B
:1005F00003D0002C01D0012000E00020C0B2F0BDEB
:1006000080B56849884209D1012180208000FFF728
:100610007BFE002180208000FFF776FE01BD30B414
:100620000023C26813001A005F4B13401A000B68C6
:100630000C7964031C438B682343CC681C430D690D
:1006400025434B692B431343C36030BC70470021E3
:10065000016000210171002181600021C160002141
:10066000016100214161704700B5C9B2002904D081
:10067000816801220A43826003E0816802220A4302
:10068000826000BD00B5C0B2002807D049480068AC
:100690008021090401434748016005E0454800689E
:1006A000424901404348016000BD00B5C0B2002886
:1006B00007D0404800688021C90301433D480160DC
:1006C00005E03C4800683A4901403A48016000BDF5
:1006D00000B5C0B2002807D0364800688021490420
:1006E00001433448016005E0324800683249014066
:1006F0003048016000BD10B40023846A2143816248
:1007000007218B431A431300436110BC704730B577
:1007100001000020002200238C6880252D0625433F
:100720008D608B68802000060340521CF020000280
:10073000824201D0002BF4D18868002801D4086CD3
:1007400000E0002030BD816804220A4382607047C7
:1007500000B5C9B2002904D0C16801220A43C260B1
:1007600003E0C16801229143C16000BDC268022359
:100770009A43C260C2681143C160704710B502005D
:1007800000200023CC0103D590680B4B034000E010
:1007900013681940002901D0012000E00020C0B2F8
:1007A00010BD00000024014003D2FFFFFFFF7FFFC8
:1007B000FFFFBFFF08270140FFFFFFFE00B50168F4
:1007C0005C4A0A4002600021016000214160002172
:1007D00081600021C1605849884206D157480068AD
:1007E0000F2101435548016074E05549884206D104
:1007F00052480068F0210143504801606AE05149C5
:10080000884207D14D480068F021090101434B4857
:1008100001605FE04C49884207D148480068F021F8
:10082000090201434548016054E04849884207D124
:1008300042480068F021090301434048016049E053
:100840004349884207D13D480068F021090401432B
:100850003A4801603EE03F49884207D13748006886
:10086000F021090501433548016033E03A498842E7
:1008700006D13A4800680F2101433848016029E059
:100880003749884206D135480068F0210143334892
:1008900001601FE03349884207D130480068F021E9
:1008A000090101432D48016014E02F49884207D116
:1008B0002A480068F021090201432848016009E044
:1008C0002A49884206D125480068F02109030143DE
:1008D0002248016000BD30B40023026813001A00F2
:1008E000234B13401A008B680C6A1C430B6923438B
:1008F0004C691C438B692343CC691C434D6A2543D7
:100900008B6A2B4313430360CA6842600A688260A3
:100910004968C16030BC704700B5C9B2002904D035
:10092000016801220A43026003E00168014A0A40AB
:10093000026000BDFEFF000008000240040002400B
:100940001C000240300002404400024058000240B7
:100950006C0002408000024008040240040402408F
:100960001C04024030040240440402405804024087
:100970000F80FFFF80B54A480068012101434848C5
:1009800001604848006848490140464801604448C1
:1009900000684649014042480160414800684449B6
:1009A00001403F4801603F480068424901403D48DE
:1009B0000160414800680F2188433F4908603F4873
:1009C00000683F4901403D4801603E480068012100
:1009D00088433C49086000203B49086000F001F86A
:1009E00001BDC0B500200190002000902C48006897
:1009F0008021490201432A4801602948006880217A
:100A00008902084000900198401C0190009800283D
:100A100004D10198A021C9018842EED12048006884
:100A2000800302D50120009001E000200090009892
:100A3000012834D11120254908601A480068194955
:100A4000086018480068174908601648006820497F
:100A5000014014480160134800688821490301439C
:100A6000104801600E4800688021490401430C4889
:100A700001600B4800688001FBD50A48006803212B
:100A80008843084908600748006802210143054877
:100A90000160044800680C2101400829F9D103BD18
:100AA00000100240041002400CB8FFF8FFFFF6FEF1
:100AB000FFFFFBFFFFFFC0FF2C1002403010024081
:100AC000ACFEFFFF3410024008100240002002403C
:100AD000FF7FC0FF00B593B0012180208002FFF7A7
:100AE000EFFB022000900320694608710020694650
:100AF000C87169469020C00500F086F80121802069
:100B00008000FFF7EDFB01210120FFF7D9FB3948F9
:100B1000FFF776FD3848FFF751FE3848089038480F
:100B2000099000200A9004200B9000200C90802057
:100B30000D90802040000E908020C0000F9020205B
:100B400010908020800111900020129008A92A485E
:100B5000FFF7C1FE01212848FFF7DEFE02212548EC
:100B6000FFF704FE01212348FFF7F2FD02A8FFF77B
:100B70006EFD00200290012002A90871002004905F
:100B8000002006900420079002A91A48FFF747FDAD
:100B9000072202211748FFF7AEFD072280218902B4
:100BA0001448FFF7A8FD0120FFF77FFD07228021F1
:100BB00049021048FFF79FFD0120FFF763FD072260
:100BC0008021C9020B48FFF796FD0120FFF780FD49
:100BD0000848FFF79CFD01210648FFF745FD09493C
:100BE0000448FFF7CBFD0028F9D00248FFF7ABFD22
:100BF00013B000BD00240140080002404024014021
:100C0000140000200100000170B500220023002420
:100C100000252A0046E0012393400C681C409C42BA
:100C20003FD10B79012B02D00B79022B19D18368AC
:100C30000324150002267543AC40A34383608368F8
:100C40004C79150002267543AC401C4384608388B0
:100C500001249440A343838083888C7994401C436F
:100C6000848003680324150002267543AC40A34327
:100C7000036003680C79150002267543AC401C43E1
:100C80000460C3680324150002267543AC40A343E7
:100C9000C360C368CC79150002267543AC401C4381
:100CA000C460521C102AB6D370BD89B281617047EE
:100CB00001857047F0B4140000220023E4B20D0057
:100CC0006D076D0F04267543AC40220089B20C00FD
:100CD000E41004256C43051989B20C00E4100426C5
:100CE00074430419266A0F27BC460C006407640F7E
:100CF00004277C436746A740BE432E6289B20C009E
:100D0000E41004256C430419246A2243130089B2B9
:100D1000C9100422514340180362F0BC7047FEE73B
:100D200080B50178012902D100F070F80AE001785D
:100D3000022902D100F071F804E00078032801D103
:100D400000F06BF801BD10B500F048F800F06CF849
:100D5000FFF7C0FE0EE01A48007801280AD10422ED
:100D60001849194800F0B8F81748FFF7D9FF0020D4
:100D700013490870154800780128ECD10020144967
:100D8000087000200E490870124C00200F490870AE
:100D90000F4800780428DEDA0D4800780100491C6D
:100DA0000B4A1170C0B2215C89B20B48FFF7B8FB47
:100DB00080210948FFF7E6FB0028E9D1F8E70000A9
:100DC000270000201C00002020000020250000201B
:100DD00024000020100000200038014000B583B03E
:100DE000012180208002FFF76BFA10200090012083
:100DF000694648710120694608710020694688717A
:100E000069469020C005FFF7FFFE07BD80B51021A1
:100E10009020C005FFF74CFF01BD80B51021902048
:100E2000C005FFF742FF01BD00B589B00121802058
:100E30008002FFF745FA01218020C001FFF750FA38
:100E4000012209219020C005FFF734FF01220A2169
:100E50009020C005FFF72EFFC020C00001900220A7
:100E600001A90871032001A94871002001A9887116
:100E7000002001A9C87101A99020C005FFF7C4FE98
:100E8000E120400203900020049000200590002003
:100E90000690002008900C20079003A90C48FFF74B
:100EA000C3FA01220B490A48FFF74AFB012108480F
:100EB000FFF721FB1B206946087001206946487036
:100EC000012069468870684600F00CF809B000BD42
:100ED000003801400501050010B5040000F03CF8A1
:100EE000200010BD10B500218278002A26D001789C
:100EF000891004225143154A5158FF2203789B0759
:100F00009B0F082463439A4091430C004178890168
:100F1000C9B202789207920F08235A4391402143A5
:100F20000278921004235A43084B9950012100780B
:100F3000C006C00E81400648016006E0012100782D
:100F4000C006C00E81400348016010BD00E400E00F
:100F500000E100E080E100E0124207D08B0706D0FC
:100F60000B78491C0370401C521EF7D8704783074A
:100F700006D00B78491C0370401C521EF9D17047F3
:100F800070B4103A03D378C9103A78C0FBD2530733
:100F900001D318C918C001D508C908C0D20704D3A5
:100FA0000B880380891C801C002A01D50B780370F4
:100FB00070BC7047704700B5FEE7704770477047D8
:100FC00010B50E490E48FFF7E9FA002815D00D4874
:100FD00004782000401C0B4908700948FFF7A4FA68
:100FE000E4B20949085507480078042805D10120D2
:100FF0000649087000200349087010BD050105006E
:1010000000380140260000201C000020270000209E
:10101000094880F3088804200168090E1F229142C4
:1010200005D10648012101600548002101600548FD
:10103000804705480047000028040020181002409F
:1010400000000140750900081111000838B40121A1
:101050000268001D002A0FD00368C31844680830D6
:101060000C4202D04D466D1E64191D6825601B1D83
:10107000241D121FECD0F8E732BC704710B50749A9
:1010800079441831064C7C44163404E0081D0A6883
:10109000891888470100A142F8D110BD080000005E
:1010A0002800000057F3FFFF140000001400002088
:1010B0000000000099FFFFFF1400000088000000FE
:1010C000000000200000000000F00BF8002801D014
:1010D000FFF7D4FF0020C046C046FFF734FE00F003
:1010E00002F80120704780B500F002F801BDFEE76C
:1010F0000746384600F002F8FBE7FEE780B5C04639
:10110000C046024A11001820ABBEFBE726000200D1
:10111000C046C046C046C046FFF7D6FFFEE7FEE722
:10112000FEE7FEE7FEE7FEE7FEE7FEE7FEE7FEE797
:10113000FEE7FEE7FEE7FEE7FEE7FEE7FEE7FEE787
:10114000FEE70000000000000102030401020304A6
:0811500006070809554152543D
:0400000508001111CD
:00000001FF
